:020000002928AD
:100006000B3083120313FB002630FC005D30FD002D
:10001600FD0B0B28FC0B0B28FB0B0B28000000002C
:020026000800D0
:1000280083120313A401A50180302506F000803057
:100038007002031D212805302402031828280320F4
:0A004800A40A0319A50A18280800ED
:10005200C33083160313860083128601061C5C28B4
:1000620086185C2806150616A201A3018030230615
:10007200F00080307002031D40280A30220203186B
:100082004A280616032006120320A20A0319A30A0D
:1000920037288617061614200612061C5528861CB9
:1000A20055280130F0005628F0017008031D5A2827
:1000B2004E2886018828861C8828061888288615D6
:1000C2008616A201A30180302306F0008030700260
:1000D200031D6D280A302202031877288616032092
:1000E20086120320A20A0319A30A64288617861619
:1000F20014208612061C8228861C82280130F000F9
:100102008328F0017008031D87287B288601861347
:040112002F288A28E0
:02400E006A2125
:00000001FF
