:0200000039289D
:10000800FF00030E8301A5000A08A4008A017C08EA
:10001800A1007D08A0008B1C2E2886140611033031
:10002800FB000830FC007730FD00FD0B1928FC0BA5
:100038001928FB0B1928861006150330FB00083019
:10004800FC007730FD00FD0B2728FC0B2728FB0B55
:1000580027288B102108FC002008FD0024088A00AE
:0A006800250E8300FF0E7F0E090035
:1000720001308316031386008501073083129F0027
:100082008030831681008B170B170B168312061113
:10009200051485108230FC00DD30FD00FD0B4F2879
:1000A200FC0B4F2800000000051085148230FC0074
:1000B200DD30FD00FD0B5B28FC0B5B28000000001F
:0600C2008B1047286328A3
:02400E006A2125
:00000001FF
