:020000001429C1
:0E000600213083120313FD00FD0B07280800B4
:06001400000000000800DE
:10001A000F3083120313FC004730FD00FD0B132839
:0A002A00FC0B132800000000080082
:1000340083120313C91B2028861321288617491B02
:100044002528061326280617C91A2A2886122B28BB
:100054008616491A2F280612302806164318342803
:1000640006143528061086140A208610C9193C285F
:1000740086133D2886174919412806134228061776
:10008400C918462886124728861649184B2806128E
:100094004C280616431850280614512806108614B6
:1000A4000A208610431C58280D20592803200800D4
:0E00B4008312031342088A00410882000800EC
:1000C2008312031343104808C9001A20431408007E
:1000D2007B28803083120313C4008E28C030C400F2
:1000E2008E289430C4008E28D430C4008E288030EC
:1000F200C4008E28831203134408013A03196A28A4
:100102004408023A03196F284408033A0319722873
:100112004408043A0319752878284503F000440876
:10012200F0077008C4007008C9001A204310C70104
:1001320047084607840000080319A728470846070E
:1001420084000008C8006120C70A992843140800E7
:1001520083160313861006100612861206138613E0
:1001620083128610061086130613861206120D20BD
:100172000D200D208616061686140A2086100D20E4
:1001820086140A2086100D2086140A2086100D205F
:10019200061286140A2086100D2086140A20861064
:1001A2008612861786140A2086100D2086130616DC
:1001B20086140A208610061286140A2086100D2044
:1001C20086140A208610061686140A2086100D2030
:1001D200061286140A208610861706178616061639
:0C01E20086140A2086100D20431408002B
:1001EE00063083120313FB001330FC00AD30FD000C
:1001FE00FD0BFF28FC0BFF28FB0BFF280000000067
:02020E000800E6
:100210005A208A110A128000840AC10A0319C20AEC
:08022000F003031D082908008A
:10022800453083120313A0005830A1003A30A200D1
:100238004C30A3004330A4004430A500A6014E3042
:10024800A7004F30A8003A30A9003030AA00363055
:10025800AB00AC015730AD004530AE004C30AF00BC
:100268004330B0004F30B1004D30B2004530B300DC
:10027800B4014230B5004530B6004330B7005330C2
:10028800B8002030B9003330BA003130BB00343008
:10029800BC003230BD003130BE00BF019701900173
:1002A80083169F018B01073083129F00A92001301C
:1002B800C9001A200C30C9001A201A30FC00F83086
:1002C800FD00FD0B6529FC0B652900000130C40009
:1002D8000530C5002D30C60069200230C400033047
:1002E800C5003530C60069200B30FB002630FC0005
:1002F8005D30FD00FD0B7E29FC0B7E29FB0B7E2962
:10030800000000000130C9001A200130C400063086
:10031800C5002030C60069200230C4000630C50080
:100328002730C60069200B30FB002630FC005D300A
:10033800FD00FD0B9D29FC0B9D29FB0B9D29000051
:100348000000C001043040020318B0291C30C90065
:100358001A20F720C00AA629C00109304002031854
:10036800BB291830C9001A20F720C00AB129C001DA
:10037800053040020318C6291C30C9001A20F7208E
:08038800C00ABC29C629C729DF
:02400E006A2125
:00000001FF
