:020000001628C0
:0E0006008312031322088A00210882000800DA
:1000140003208A110A128000840AA10A0319A20A81
:08002400F003031D0A28080087
:10002C0083120313A00107309F000730831685004D
:10003C0086018312860105183B282008003A031D0F
:10004C003B2886010614861006150B30FB00263063
:10005C00FC005D30FD00FD0B3128FC0B3128FB0B47
:10006C0031280000000086014528851842288601A9
:10007C0006148614061145280519452886012128E1
:02008C00462804
:02400E006A2125
:00000001FF
