:020000001628C0
:0E0006008312031325088A00240882000800D4
:1000140003208A110A128000840AA40A0319A50A7B
:08002400F003031D0A28080087
:10002C0083120313A001A101A201A30101308316C5
:10003C00860083128601061C4B2800302106031D06
:10004C00292800302006031D4B280130A000003069
:10005C00A100220823040130031D0030A200A300DC
:10006C000030A30022183C2886103D28861402304C
:10007C00FB000430FC00BA30FD00FD0B4328FC0BE8
:10008C004328FB0B432800004F2806184F28A001DB
:06009C00A10121285028FB
:02400E006A2125
:00000001FF
