:02000000202BB3
:06000600000000000800EC
:10000C000F3083120313FC004730FD00FD0B0C284E
:0A001C00FC0B0C2800000000080097
:0E002600213083120313FD00FD0B1728080084
:1000340083160313A01B212883120513232883127C
:1000440005178316201B2928831285132B28831256
:1000540085178316A01A3128831285113328831239
:1000640085158316201A3928831205113B2883121B
:10007400051551183F280514402805108514032040
:1000840085108316A0194928831205134B2883125F
:1000940005178316201951288312851353288312B8
:1000A40085178316A0185928831285115B2883129B
:1000B400851583162018612883120511632883127D
:1000C40005155118672805146828051085140320A0
:0E00D4008510511C6F2806207028132008008C
:1000E20083120313F801F9011030FC00710DF80DB1
:1000F200F90D7408F8027508031C750FF90203184C
:1001020089287408F80775080318750FF907031092
:0A011200F00DF10DFC0B772808003A
:10011C008312031351106F088316A0001A20511478
:02012C000800C9
:10012E0083120313EA01EC01ED011030EE000430EE
:10013E006D020318C828F03086008030F000700879
:10014E00063E84006E09F000700880000320032034
:10015E000F300605F0007008EB0070080319C22876
:10016E006C08EA006B080319C028EB0CEB13EA0AC3
:10017E00B9280430ED00EE0D6E100430EC07ED0AD8
:08018E009E286A08F000080039
:10019600710DF80DF90D7408F8027508031C750F3A
:1001A600F902F00DF10D0F30FC00710DF80DF90D8F
:1001B6007408701CE428F8027508031C750FF90210
:1001C600E928F80775080318750FF907F00DF10D02
:1001D600FC0BD8287018F5287408F807750803185A
:0801E600750FF9070000080085
:0E01EE008312031350088A004F088200080095
:1001FC00063083120313FD00FD0B022900000800DA
:10020C0083120313ED0105306D02031814296D08D8
:10021C006C07840020308000ED0A09296D086C07FA
:10022C0084008001ED036D086C07EE000A30F400C9
:10023C00F5016A08F0006B08F10071207808F000F5
:10024C007908F1003030F0076E08840070088000E7
:10025C000A30F400F5016A08F0006B08F100712017
:10026C007008EA007108EB0000307106031D40298C
:10027C0000307006031D43294529ED031929080098
:10028C005829803083120313EA006B29C030EA002E
:10029C006B299430EA006B29D430EA006B2980304A
:1002AC00EA006B29831203136A08013A03194729E0
:1002BC006A08023A03194C296A08033A03194F29B0
:1002CC006A08043A0319522955296B03F0006A088D
:1002DC00F0077008EA0070088316A0001A2051106D
:1002EC00ED016D086C0784000008031985296D0861
:1002FC006C0784000008EF008E20ED0A772951145A
:02030C000800E7
:10030E0083120313E601E7016108E8006208E900C1
:10031E0080306206F00080307002031D9829003094
:10032E0061020318A6290130E6000030E7006108DB
:10033E00003CE8006208031C013EE901E90268087E
:10034E00EA006908EB006308EC0006210630E400C1
:10035E000030E5006508003C031DB7296408003C29
:10036E000318D22964086307F20001306402F0001A
:10037E000030031C013E6502F10070086307840023
:10038E000008F00072088400700880000130E4025A
:10039E00031CE503B1296308840020308000660841
:1003AE0067040319F029E401E5016408630784007A
:1003BE000008203A031DE729E40A0319E50ADC299F
:1003CE000130E402031CE5036408630784002D304A
:0403DE008000080093
:1003E20097207008E1000F300605F0000319FB2981
:0A03F200FE20F4296108F000080065
:1003FC0083120313FB01FA01F9018030F800F10CB0
:10040C00F00C031C122A7408F90775080318750FF1
:10041C00FA070318FB0A0310F01F1A2A7408FA07CC
:10042C0075080318750FFB07FB0CFA0CF90CF80C8C
:10043C00031C052A7B08F3007A08F2007908F10006
:06044C007808F000080032
:1004520083120313B501B601B701B801B901BA019C
:10046200BB01BC01A401A501A601A701A801A90124
:10047200A001A101A201A301CD01CE010130831689
:10048200A0001A200130EA000130EB003F30EC00FE
:100492004621C0308316A0001A200F308316A00018
:0404A2001A20080014
:1004A6008316031385100510051185118513051391
:1004B6008312851005100513851385110511062075
:1004C60006200620851505158514032085100620AF
:1004D6008514032085100620851403208510062028
:1004E6000511851403208510062085140320851028
:1004F600851105178514032085100620051305159B
:100506008514032085100511851403208510062007
:1005160085140320851005158514032085100620F3
:1005260005118514032085100517851785150515F2
:0C053600851403208510062051140800D5
:10054200803083120313F0007008063E8400FF30EF
:04055200800008001D
:10055600F7208A110A128000840ACF0A0319D00AEA
:08056600F003031DAB2A08009D
:10056E00831203137408003A031DC62A7508003A55
:10057E00031DC62AFF30F0007F30F1001F2B8312BF
:10058E000313FD01F901F801710870040319003419
:10059E0071087506FA00FA1BFD09FB01F51FDC2A2E
:1005AE00F409F509F40A0319F50AF11FE32AF00913
:1005BE00F109F00A0319F10A71087504FA00FA1B21
:1005CE00F82ACB207B180B2BFD1F0034F009F10904
:1005DE00F00A0319F10AF809F909F80A0319F90AD8
:1005EE000034F51F072BF11B032B7108F90070085F
:1005FE00F800F101F001EB2AF101F001F00A0034EC
:10060E00F109F009FB0AE82AF80A0319F90A740835
:10061E007802031DEB2A75087902031DEB2AF901F6
:10062E00F801F00A0319F10AF11FEB2A0000FF345A
:02063E000800B2
:10064000B2250730831203139F008316850183129E
:100650008501A12253222922F1217008BD00BE018B
:100660008230FC00DD30FD00FD0B342BFC0B342B05
:10067000000000003D083E0403192C2B8A2B01309A
:10068000AA000030AB000B2C0430AA000030AB00F5
:100690000B2C0730AA000030AB000B2C29222C2B8E
:1006A0000230AA000030AB000B2C0530AA0000304D
:1006B000AB000B2C0830AA000030AB000B2CAA01B9
:1006C000AB010B2C0330AA000030AB000B2C063022
:1006D000AA000030AB000B2C0930AA000030AB00A0
:1006E0000B2C3D30AA00AB010B2C2F30AA00AB0124
:1006F0000B2C2A30AA00AB010B2C2D30AA00AB0129
:100700000B2C2B30AA00AB010B2CFF30AA00FF30C2
:10071000AB000B2C00303E06031D902B01303D0634
:1007200003193F2B00303E06031D982B02303D0677
:100730000319442B00303E06031DA02B03303D0659
:100740000319492B00303E06031DA82B04303D063B
:1007500003194E2B00303E06031DB02B05303D061D
:100760000319502B00303E06031DB82B06303D0602
:100770000319552B00303E06031DC02B07303D06E4
:1007800003195A2B00303E06031DC82B08303D06C6
:1007900003195F2B00303E06031DD02B09303D06A8
:1007A0000319622B00303E06031DD82B0A303D068C
:1007B0000319672B00303E06031DE02B0B303D066E
:1007C00003196C2B00303E06031DE82B0C303D0650
:1007D0000319712B00303E06031DF02B0D303D0632
:1007E0000319752B00303E06031DF82B0E303D0615
:1007F0000319792B00303E06031D002C0F303D06F7
:1008000003197D2B00303E06031D082C10303D06D9
:100810000319812B852B80302B06F000803070026D
:10082000031D142C00302A02031C962C8030F0008B
:1008300080302B067002031D1F2C2A08093C031C64
:10084000962C00304E06031D272C00304D06031D4C
:10085000362C2A08A2002B08A30030302A07EF000C
:100860008E200130CD000030CE00962C00304E0698
:10087000031D3C2C01304D06031D5C2C2A08A000F2
:100880002B08A10030302A07EF008E202208F0004C
:100890002308F1000A30F4000030F500FE212008A2
:1008A0007007BB0071080318013E2107BC0002302D
:1008B000CD000030CE00962C00304E06031D622C79
:1008C00003304D06031D712C2A08A6002B08A70033
:1008D00030302A07EF008E200430CD000030CE00EB
:1008E000962C00304E06031D772C04304D06031D58
:1008F000962C2A08A4002B08A50030302A07EF0008
:100900008E202608F0002708F1000A30F40000309D
:10091000F500FE2124087007B90071080318013E94
:100920002507BA000530CD000030CE0000302B0680
:10093000031D9C2C2B302A060319B72C00302B06E4
:10094000031DA42C2D302A060319B72C00302B06CA
:10095000031DAC2C2A302A060319B72C00302B06B5
:10096000031DB42C2F302A060319B72CCA2C0030D3
:100970004E06031DBD2C02304D06031DCA2C2A084D
:10098000A8002B08A9002A08EF008E200330CD0014
:100990000030CE0000302B06031DD02C3D302A063F
:1009A000031D7C2D00304E06031DD82C05304D064E
:1009B000031D7C2D2A2D39083B07B5003C08031880
:1009C000013E3A07B6000030B61BFF30B700B80052
:1009D0004A2D39083B02B5003A08031C013E3C028F
:1009E000B6000030B61BFF30B700B8004A2D3B08F8
:1009F000F0003C08F1003908F4003A08F500FE2147
:100A00007008B5007108B6000030B61BFF30B700A3
:100A1000B8004A2D00303A06031D102D003039066B
:100A20000319252D3908F4003A08F5003B08F000B9
:100A30003C08F100B7227008B5007108B60000301C
:100A4000B61BFF30B700B800292DB501B601B701BC
:100A5000B8014A2D00302906031D302D2B30280601
:100A60000319DB2C00302906031D382D2D302806F4
:100A70000319E92C00302906031D402D2A302806D1
:100A80000319F72C00302906031D482D2F302806A6
:100A900003190A2D01308316A0001A200130EA0044
:100AA0000130EB002C30EC0046213508E10036081F
:100AB000E2005230E30087210230EA000130EB000F
:100AC0005230EC004621F1217008BD00BE01823099
:100AD000FC00DD30FD00FD0B6B2DFC0B6B2D0000D1
:100AE000000000303E06031D772D01303D06031D3A
:0C0AF0007A2D7B2D632D29222C2B7D2DCF
:100B6400203084002F3083120313F0008330CF0031
:080B74000530D000AB2208009F
:040B06000034003483
:040B0A00003400347F
:040B0E00003400347B
:040B12000034003477
:040B16000034003473
:040B1A00003400346F
:100B1E0041346E34733477346534723420343D345A
:020B2E00003491
:080B30000034003400340034ED
:040B38000034003451
:040B3C00003400344D
:040B40000034003449
:100B440045346E347434653472342034563461342C
:0C0B54006C347534653473343A3400346A
:040B60000034003429
:02400E0010217F
:00000001FF
