:02000000762860
:1000060083120313FB01FA01F9018030F800F10CA9
:10001600F00C031C17287408F90775080318750FE8
:10002600FA070318FB0A0310F01F1F287408FA07C3
:1000360075080318750FFB07FB0CFA0CF90CF80C86
:10004600031C0A287B08F3007A08F2007908F100FD
:060056007808F00008002C
:0C005C008312031395011712971208007D
:10006800831603138611831212150C3097040800A7
:10007800831603131208013EF000F1010318F10A78
:1000880083122308F400F50103200630F2007008FB
:10009800F4007108F500720803195728F50CF40CE0
:1000A800F513FF3E50280430F1007408F000710881
:1000B80003196228F00D7010FF3E5C28303070057F
:1000C800F3007408F0007508F100F10CF00CF1135E
:1000D800F10CF00CF113700895000F3097057308B8
:0400E8009704080071
:1000EC000730831203139F00831686018312860147
:1000FC00121492106330831692002E203420A20129
:10010C002208FF3C031C98282208A3003C204E30F8
:10011C00FC00EB30FD00FD0B9128FC0B9128053009
:10012C00A2078628FF30A20000302202031CAC2854
:10013C002208A3003C204E30FC00EB30FD00FD0BF0
:10014C00A528FC0BA5280530A2029A288528AD28E5
:02400E0011217E
:00000001FF
