:0200000047288F
:10000600033083120313A2000430A3008316860173
:1000160083128601F201F30180307306F00080300E
:100026007002031D1828043072020318462822089D
:10003600F1000130F000710803192528F00D701049
:10004600FF3E1F28700886042308F1000130F000E7
:10005600710803193228F00D7010FF3E2C28700825
:1000660086040330FB000830FC007730FD00FD0BF2
:100076003A28FC0B3A28FB0B3A28A203A30AF20AF9
:080086000319F30A0F2808001A
:0E008E000730831203139F0003204B284D28D8
:02400E004A2145
:00000001FF
