:02000000732863
:10000600831603138601043085008312051D3F28DD
:10001600013086000330FB000830FC007730FD001D
:10002600FD0B1328FC0B1328FB0B13280230F100E1
:10003600F201F30180307306F00080307002031D78
:1000460026280730720203183E2871088604F10D2F
:1000560071100330FB008A30FC005530FD00FD0BAB
:100066003228FC0B3228FB0B322800000000F20A73
:100076000319F30A1D287228803086004030F100EB
:100086000330FB000830FC007730FD00FD0B4928EB
:10009600FC0B4928FB0B4928F201F301803073065B
:1000A600F00080307002031D5A28073072020318D0
:1000B600722871088604F10CF1130330FB008A30B4
:1000C600FC005530FD00FD0B6628FC0B6628FB0B7B
:1000D600662800000000F20A0319F30A51280800F6
:1000E6000730831203139F000430831685008601B0
:0A00F6008312860103207D287F2875
:02400E006A2125
:00000001FF
