:020000006A286C
:1000060083160313860183128601F201F301803001
:10001600F000803073067002031D13287208063C38
:10002600031C33287208F1000130F000710803192F
:100036002028F00D7010FF3E1A2870088604023042
:10004600FB008630FC009930FD00FD0B2828FC0BD8
:100056002828FB0B28280230F2070318F30A0A287F
:100066000730F2000030F30080307306F000803075
:100076007002031D402801307202031C69287208B1
:10008600F1000130F000710803194D28F00D7010D1
:10009600FF3E4728700886040330FB000830FC004A
:1000A6007730FD00FD0B5528FC0B5528FB0B55281A
:1000B60000307306031D612801307206031D642893
:0E00C60069280230F202031CF30337280800F9
:0E00D4000730831203139F0003206E2870284C
:02400E006A2125
:00000001FF
